{
  "contractName": "MyERC20Token",
  "abi": [
    {
      "inputs": [
        {
          "internalType": "uint256",
          "name": "initialSupply",
          "type": "uint256"
        }
      ],
      "stateMutability": "nonpayable",
      "type": "constructor"
    },
    {
      "anonymous": false,
      "inputs": [
        {
          "indexed": true,
          "internalType": "address",
          "name": "owner",
          "type": "address"
        },
        {
          "indexed": true,
          "internalType": "address",
          "name": "spender",
          "type": "address"
        },
        {
          "indexed": false,
          "internalType": "uint256",
          "name": "value",
          "type": "uint256"
        }
      ],
      "name": "Approval",
      "type": "event"
    },
    {
      "anonymous": false,
      "inputs": [
        {
          "indexed": true,
          "internalType": "address",
          "name": "from",
          "type": "address"
        },
        {
          "indexed": true,
          "internalType": "address",
          "name": "to",
          "type": "address"
        },
        {
          "indexed": false,
          "internalType": "uint256",
          "name": "value",
          "type": "uint256"
        }
      ],
      "name": "Transfer",
      "type": "event"
    },
    {
      "inputs": [
        {
          "internalType": "address",
          "name": "owner",
          "type": "address"
        },
        {
          "internalType": "address",
          "name": "spender",
          "type": "address"
        }
      ],
      "name": "allowance",
      "outputs": [
        {
          "internalType": "uint256",
          "name": "",
          "type": "uint256"
        }
      ],
      "stateMutability": "view",
      "type": "function",
      "constant": true
    },
    {
      "inputs": [
        {
          "internalType": "address",
          "name": "spender",
          "type": "address"
        },
        {
          "internalType": "uint256",
          "name": "amount",
          "type": "uint256"
        }
      ],
      "name": "approve",
      "outputs": [
        {
          "internalType": "bool",
          "name": "",
          "type": "bool"
        }
      ],
      "stateMutability": "nonpayable",
      "type": "function"
    },
    {
      "inputs": [
        {
          "internalType": "address",
          "name": "account",
          "type": "address"
        }
      ],
      "name": "balanceOf",
      "outputs": [
        {
          "internalType": "uint256",
          "name": "",
          "type": "uint256"
        }
      ],
      "stateMutability": "view",
      "type": "function",
      "constant": true
    },
    {
      "inputs": [],
      "name": "decimals",
      "outputs": [
        {
          "internalType": "uint8",
          "name": "",
          "type": "uint8"
        }
      ],
      "stateMutability": "view",
      "type": "function",
      "constant": true
    },
    {
      "inputs": [
        {
          "internalType": "address",
          "name": "spender",
          "type": "address"
        },
        {
          "internalType": "uint256",
          "name": "subtractedValue",
          "type": "uint256"
        }
      ],
      "name": "decreaseAllowance",
      "outputs": [
        {
          "internalType": "bool",
          "name": "",
          "type": "bool"
        }
      ],
      "stateMutability": "nonpayable",
      "type": "function"
    },
    {
      "inputs": [
        {
          "internalType": "address",
          "name": "spender",
          "type": "address"
        },
        {
          "internalType": "uint256",
          "name": "addedValue",
          "type": "uint256"
        }
      ],
      "name": "increaseAllowance",
      "outputs": [
        {
          "internalType": "bool",
          "name": "",
          "type": "bool"
        }
      ],
      "stateMutability": "nonpayable",
      "type": "function"
    },
    {
      "inputs": [],
      "name": "name",
      "outputs": [
        {
          "internalType": "string",
          "name": "",
          "type": "string"
        }
      ],
      "stateMutability": "view",
      "type": "function",
      "constant": true
    },
    {
      "inputs": [],
      "name": "owner",
      "outputs": [
        {
          "internalType": "address",
          "name": "",
          "type": "address"
        }
      ],
      "stateMutability": "view",
      "type": "function",
      "constant": true
    },
    {
      "inputs": [],
      "name": "symbol",
      "outputs": [
        {
          "internalType": "string",
          "name": "",
          "type": "string"
        }
      ],
      "stateMutability": "view",
      "type": "function",
      "constant": true
    },
    {
      "inputs": [],
      "name": "totalSupply",
      "outputs": [
        {
          "internalType": "uint256",
          "name": "",
          "type": "uint256"
        }
      ],
      "stateMutability": "view",
      "type": "function",
      "constant": true
    },
    {
      "inputs": [
        {
          "internalType": "address",
          "name": "to",
          "type": "address"
        },
        {
          "internalType": "uint256",
          "name": "amount",
          "type": "uint256"
        }
      ],
      "name": "transfer",
      "outputs": [
        {
          "internalType": "bool",
          "name": "",
          "type": "bool"
        }
      ],
      "stateMutability": "nonpayable",
      "type": "function"
    },
    {
      "inputs": [
        {
          "internalType": "address",
          "name": "from",
          "type": "address"
        },
        {
          "internalType": "address",
          "name": "to",
          "type": "address"
        },
        {
          "internalType": "uint256",
          "name": "amount",
          "type": "uint256"
        }
      ],
      "name": "transferFrom",
      "outputs": [
        {
          "internalType": "bool",
          "name": "",
          "type": "bool"
        }
      ],
      "stateMutability": "nonpayable",
      "type": "function"
    },
    {
      "inputs": [
        {
          "internalType": "uint256",
          "name": "amount",
          "type": "uint256"
        }
      ],
      "name": "mint",
      "outputs": [],
      "stateMutability": "nonpayable",
      "type": "function"
    },
    {
      "inputs": [
        {
          "internalType": "address",
          "name": "recipient",
          "type": "address"
        },
        {
          "internalType": "uint256",
          "name": "amount",
          "type": "uint256"
        }
      ],
      "name": "mintFor",
      "outputs": [],
      "stateMutability": "nonpayable",
      "type": "function"
    }
  ],
  "bytecode": "0x60806040523480156200001157600080fd5b5060405162001ff638038062001ff6833981810160405281019062000037919062000310565b6040518060400160405280600781526020017f4d79546f6b656e000000000000000000000000000000000000000000000000008152506040518060400160405280600381526020017f4d544b00000000000000000000000000000000000000000000000000000000008152508160039081620000b49190620005b2565b508060049081620000c69190620005b2565b5050506200010833620000de6200015060201b60201c565b60ff16600a620000ef91906200081c565b83620000fc91906200086d565b6200015960201b60201c565b33600560006101000a81548173ffffffffffffffffffffffffffffffffffffffff021916908373ffffffffffffffffffffffffffffffffffffffff16021790555050620009a4565b60006012905090565b600073ffffffffffffffffffffffffffffffffffffffff168273ffffffffffffffffffffffffffffffffffffffff1603620001cb576040517f08c379a0000000000000000000000000000000000000000000000000000000008152600401620001c29062000919565b60405180910390fd5b620001df60008383620002c660201b60201c565b8060026000828254620001f391906200093b565b92505081905550806000808473ffffffffffffffffffffffffffffffffffffffff1673ffffffffffffffffffffffffffffffffffffffff168152602001908152602001600020600082825401925050819055508173ffffffffffffffffffffffffffffffffffffffff16600073ffffffffffffffffffffffffffffffffffffffff167fddf252ad1be2c89b69c2b068fc378daa952ba7f163c4a11628f55a4df523b3ef83604051620002a6919062000987565b60405180910390a3620002c260008383620002cb60201b60201c565b5050565b505050565b505050565b600080fd5b6000819050919050565b620002ea81620002d5565b8114620002f657600080fd5b50565b6000815190506200030a81620002df565b92915050565b600060208284031215620003295762000328620002d0565b5b60006200033984828501620002f9565b91505092915050565b600081519050919050565b7f4e487b7100000000000000000000000000000000000000000000000000000000600052604160045260246000fd5b7f4e487b7100000000000000000000000000000000000000000000000000000000600052602260045260246000fd5b60006002820490506001821680620003c457607f821691505b602082108103620003da57620003d96200037c565b5b50919050565b60008190508160005260206000209050919050565b60006020601f8301049050919050565b600082821b905092915050565b600060088302620004447fffffffffffffffffffffffffffffffffffffffffffffffffffffffffffffffff8262000405565b62000450868362000405565b95508019841693508086168417925050509392505050565b6000819050919050565b6000620004936200048d6200048784620002d5565b62000468565b620002d5565b9050919050565b6000819050919050565b620004af8362000472565b620004c7620004be826200049a565b84845462000412565b825550505050565b600090565b620004de620004cf565b620004eb818484620004a4565b505050565b5b81811015620005135762000507600082620004d4565b600181019050620004f1565b5050565b601f82111562000562576200052c81620003e0565b6200053784620003f5565b8101602085101562000547578190505b6200055f6200055685620003f5565b830182620004f0565b50505b505050565b600082821c905092915050565b6000620005876000198460080262000567565b1980831691505092915050565b6000620005a2838362000574565b9150826002028217905092915050565b620005bd8262000342565b67ffffffffffffffff811115620005d957620005d86200034d565b5b620005e58254620003ab565b620005f282828562000517565b600060209050601f8311600181146200062a576000841562000615578287015190505b62000621858262000594565b86555062000691565b601f1984166200063a86620003e0565b60005b8281101562000664578489015182556001820191506020850194506020810190506200063d565b8683101562000684578489015162000680601f89168262000574565b8355505b6001600288020188555050505b505050505050565b7f4e487b7100000000000000000000000000000000000000000000000000000000600052601160045260246000fd5b60008160011c9050919050565b6000808291508390505b60018511156200072757808604811115620006ff57620006fe62000699565b5b60018516156200070f5780820291505b80810290506200071f85620006c8565b9450620006df565b94509492505050565b60008262000742576001905062000815565b8162000752576000905062000815565b81600181146200076b57600281146200077657620007ac565b600191505062000815565b60ff8411156200078b576200078a62000699565b5b8360020a915084821115620007a557620007a462000699565b5b5062000815565b5060208310610133831016604e8410600b8410161715620007e65782820a905083811115620007e057620007df62000699565b5b62000815565b620007f58484846001620006d5565b925090508184048111156200080f576200080e62000699565b5b81810290505b9392505050565b60006200082982620002d5565b91506200083683620002d5565b9250620008657fffffffffffffffffffffffffffffffffffffffffffffffffffffffffffffffff848462000730565b905092915050565b60006200087a82620002d5565b91506200088783620002d5565b92508282026200089781620002d5565b91508282048414831517620008b157620008b062000699565b5b5092915050565b600082825260208201905092915050565b7f45524332303a206d696e7420746f20746865207a65726f206164647265737300600082015250565b600062000901601f83620008b8565b91506200090e82620008c9565b602082019050919050565b600060208201905081810360008301526200093481620008f2565b9050919050565b60006200094882620002d5565b91506200095583620002d5565b925082820190508082111562000970576200096f62000699565b5b92915050565b6200098181620002d5565b82525050565b60006020820190506200099e600083018462000976565b92915050565b61164280620009b46000396000f3fe608060405234801561001057600080fd5b50600436106100ea5760003560e01c80638da5cb5b1161008c578063a457c2d711610066578063a457c2d714610261578063a9059cbb14610291578063da1919b3146102c1578063dd62ed3e146102dd576100ea565b80638da5cb5b1461020957806395d89b4114610227578063a0712d6814610245576100ea565b806323b872dd116100c857806323b872dd1461015b578063313ce5671461018b57806339509351146101a957806370a08231146101d9576100ea565b806306fdde03146100ef578063095ea7b31461010d57806318160ddd1461013d575b600080fd5b6100f761030d565b6040516101049190610dca565b60405180910390f35b61012760048036038101906101229190610e85565b61039f565b6040516101349190610ee0565b60405180910390f35b6101456103c2565b6040516101529190610f0a565b60405180910390f35b61017560048036038101906101709190610f25565b6103cc565b6040516101829190610ee0565b60405180910390f35b6101936103fb565b6040516101a09190610f94565b60405180910390f35b6101c360048036038101906101be9190610e85565b610404565b6040516101d09190610ee0565b60405180910390f35b6101f360048036038101906101ee9190610faf565b61043b565b6040516102009190610f0a565b60405180910390f35b610211610483565b60405161021e9190610feb565b60405180910390f35b61022f6104a9565b60405161023c9190610dca565b60405180910390f35b61025f600480360381019061025a9190611006565b61053b565b005b61027b60048036038101906102769190610e85565b610548565b6040516102889190610ee0565b60405180910390f35b6102ab60048036038101906102a69190610e85565b6105bf565b6040516102b89190610ee0565b60405180910390f35b6102db60048036038101906102d69190610e85565b6105e2565b005b6102f760048036038101906102f29190611033565b610680565b6040516103049190610f0a565b60405180910390f35b60606003805461031c906110a2565b80601f0160208091040260200160405190810160405280929190818152602001828054610348906110a2565b80156103955780601f1061036a57610100808354040283529160200191610395565b820191906000526020600020905b81548152906001019060200180831161037857829003601f168201915b5050505050905090565b6000806103aa610707565b90506103b781858561070f565b600191505092915050565b6000600254905090565b6000806103d7610707565b90506103e48582856108d8565b6103ef858585610964565b60019150509392505050565b60006012905090565b60008061040f610707565b90506104308185856104218589610680565b61042b9190611102565b61070f565b600191505092915050565b60008060008373ffffffffffffffffffffffffffffffffffffffff1673ffffffffffffffffffffffffffffffffffffffff168152602001908152602001600020549050919050565b600560009054906101000a900473ffffffffffffffffffffffffffffffffffffffff1681565b6060600480546104b8906110a2565b80601f01602080910402602001604051908101604052809291908181526020018280546104e4906110a2565b80156105315780601f1061050657610100808354040283529160200191610531565b820191906000526020600020905b81548152906001019060200180831161051457829003601f168201915b5050505050905090565b6105453382610bda565b50565b600080610553610707565b905060006105618286610680565b9050838110156105a6576040517f08c379a000000000000000000000000000000000000000000000000000000000815260040161059d906111a8565b60405180910390fd5b6105b3828686840361070f565b60019250505092915050565b6000806105ca610707565b90506105d7818585610964565b600191505092915050565b600560009054906101000a900473ffffffffffffffffffffffffffffffffffffffff1673ffffffffffffffffffffffffffffffffffffffff163373ffffffffffffffffffffffffffffffffffffffff1614610672576040517f08c379a00000000000000000000000000000000000000000000000000000000081526004016106699061123a565b60405180910390fd5b61067c8282610bda565b5050565b6000600160008473ffffffffffffffffffffffffffffffffffffffff1673ffffffffffffffffffffffffffffffffffffffff16815260200190815260200160002060008373ffffffffffffffffffffffffffffffffffffffff1673ffffffffffffffffffffffffffffffffffffffff16815260200190815260200160002054905092915050565b600033905090565b600073ffffffffffffffffffffffffffffffffffffffff168373ffffffffffffffffffffffffffffffffffffffff160361077e576040517f08c379a0000000000000000000000000000000000000000000000000000000008152600401610775906112cc565b60405180910390fd5b600073ffffffffffffffffffffffffffffffffffffffff168273ffffffffffffffffffffffffffffffffffffffff16036107ed576040517f08c379a00000000000000000000000000000000000000000000000000000000081526004016107e49061135e565b60405180910390fd5b80600160008573ffffffffffffffffffffffffffffffffffffffff1673ffffffffffffffffffffffffffffffffffffffff16815260200190815260200160002060008473ffffffffffffffffffffffffffffffffffffffff1673ffffffffffffffffffffffffffffffffffffffff168152602001908152602001600020819055508173ffffffffffffffffffffffffffffffffffffffff168373ffffffffffffffffffffffffffffffffffffffff167f8c5be1e5ebec7d5bd14f71427d1e84f3dd0314c0f7b2291e5b200ac8c7c3b925836040516108cb9190610f0a565b60405180910390a3505050565b60006108e48484610680565b90507fffffffffffffffffffffffffffffffffffffffffffffffffffffffffffffffff811461095e5781811015610950576040517f08c379a0000000000000000000000000000000000000000000000000000000008152600401610947906113ca565b60405180910390fd5b61095d848484840361070f565b5b50505050565b600073ffffffffffffffffffffffffffffffffffffffff168373ffffffffffffffffffffffffffffffffffffffff16036109d3576040517f08c379a00000000000000000000000000000000000000000000000000000000081526004016109ca9061145c565b60405180910390fd5b600073ffffffffffffffffffffffffffffffffffffffff168273ffffffffffffffffffffffffffffffffffffffff1603610a42576040517f08c379a0000000000000000000000000000000000000000000000000000000008152600401610a39906114ee565b60405180910390fd5b610a4d838383610d30565b60008060008573ffffffffffffffffffffffffffffffffffffffff1673ffffffffffffffffffffffffffffffffffffffff16815260200190815260200160002054905081811015610ad3576040517f08c379a0000000000000000000000000000000000000000000000000000000008152600401610aca90611580565b60405180910390fd5b8181036000808673ffffffffffffffffffffffffffffffffffffffff1673ffffffffffffffffffffffffffffffffffffffff16815260200190815260200160002081905550816000808573ffffffffffffffffffffffffffffffffffffffff1673ffffffffffffffffffffffffffffffffffffffff168152602001908152602001600020600082825401925050819055508273ffffffffffffffffffffffffffffffffffffffff168473ffffffffffffffffffffffffffffffffffffffff167fddf252ad1be2c89b69c2b068fc378daa952ba7f163c4a11628f55a4df523b3ef84604051610bc19190610f0a565b60405180910390a3610bd4848484610d35565b50505050565b600073ffffffffffffffffffffffffffffffffffffffff168273ffffffffffffffffffffffffffffffffffffffff1603610c49576040517f08c379a0000000000000000000000000000000000000000000000000000000008152600401610c40906115ec565b60405180910390fd5b610c5560008383610d30565b8060026000828254610c679190611102565b92505081905550806000808473ffffffffffffffffffffffffffffffffffffffff1673ffffffffffffffffffffffffffffffffffffffff168152602001908152602001600020600082825401925050819055508173ffffffffffffffffffffffffffffffffffffffff16600073ffffffffffffffffffffffffffffffffffffffff167fddf252ad1be2c89b69c2b068fc378daa952ba7f163c4a11628f55a4df523b3ef83604051610d189190610f0a565b60405180910390a3610d2c60008383610d35565b5050565b505050565b505050565b600081519050919050565b600082825260208201905092915050565b60005b83811015610d74578082015181840152602081019050610d59565b60008484015250505050565b6000601f19601f8301169050919050565b6000610d9c82610d3a565b610da68185610d45565b9350610db6818560208601610d56565b610dbf81610d80565b840191505092915050565b60006020820190508181036000830152610de48184610d91565b905092915050565b600080fd5b600073ffffffffffffffffffffffffffffffffffffffff82169050919050565b6000610e1c82610df1565b9050919050565b610e2c81610e11565b8114610e3757600080fd5b50565b600081359050610e4981610e23565b92915050565b6000819050919050565b610e6281610e4f565b8114610e6d57600080fd5b50565b600081359050610e7f81610e59565b92915050565b60008060408385031215610e9c57610e9b610dec565b5b6000610eaa85828601610e3a565b9250506020610ebb85828601610e70565b9150509250929050565b60008115159050919050565b610eda81610ec5565b82525050565b6000602082019050610ef56000830184610ed1565b92915050565b610f0481610e4f565b82525050565b6000602082019050610f1f6000830184610efb565b92915050565b600080600060608486031215610f3e57610f3d610dec565b5b6000610f4c86828701610e3a565b9350506020610f5d86828701610e3a565b9250506040610f6e86828701610e70565b9150509250925092565b600060ff82169050919050565b610f8e81610f78565b82525050565b6000602082019050610fa96000830184610f85565b92915050565b600060208284031215610fc557610fc4610dec565b5b6000610fd384828501610e3a565b91505092915050565b610fe581610e11565b82525050565b60006020820190506110006000830184610fdc565b92915050565b60006020828403121561101c5761101b610dec565b5b600061102a84828501610e70565b91505092915050565b6000806040838503121561104a57611049610dec565b5b600061105885828601610e3a565b925050602061106985828601610e3a565b9150509250929050565b7f4e487b7100000000000000000000000000000000000000000000000000000000600052602260045260246000fd5b600060028204905060018216806110ba57607f821691505b6020821081036110cd576110cc611073565b5b50919050565b7f4e487b7100000000000000000000000000000000000000000000000000000000600052601160045260246000fd5b600061110d82610e4f565b915061111883610e4f565b92508282019050808211156111305761112f6110d3565b5b92915050565b7f45524332303a2064656372656173656420616c6c6f77616e63652062656c6f7760008201527f207a65726f000000000000000000000000000000000000000000000000000000602082015250565b6000611192602583610d45565b915061119d82611136565b604082019050919050565b600060208201905081810360008301526111c181611185565b9050919050565b7f4f6e6c79206f776e65722063616e206d696e7420746f6b656e7320666f72206f60008201527f7468657273000000000000000000000000000000000000000000000000000000602082015250565b6000611224602583610d45565b915061122f826111c8565b604082019050919050565b6000602082019050818103600083015261125381611217565b9050919050565b7f45524332303a20617070726f76652066726f6d20746865207a65726f2061646460008201527f7265737300000000000000000000000000000000000000000000000000000000602082015250565b60006112b6602483610d45565b91506112c18261125a565b604082019050919050565b600060208201905081810360008301526112e5816112a9565b9050919050565b7f45524332303a20617070726f766520746f20746865207a65726f20616464726560008201527f7373000000000000000000000000000000000000000000000000000000000000602082015250565b6000611348602283610d45565b9150611353826112ec565b604082019050919050565b600060208201905081810360008301526113778161133b565b9050919050565b7f45524332303a20696e73756666696369656e7420616c6c6f77616e6365000000600082015250565b60006113b4601d83610d45565b91506113bf8261137e565b602082019050919050565b600060208201905081810360008301526113e3816113a7565b9050919050565b7f45524332303a207472616e736665722066726f6d20746865207a65726f20616460008201527f6472657373000000000000000000000000000000000000000000000000000000602082015250565b6000611446602583610d45565b9150611451826113ea565b604082019050919050565b6000602082019050818103600083015261147581611439565b9050919050565b7f45524332303a207472616e7366657220746f20746865207a65726f206164647260008201527f6573730000000000000000000000000000000000000000000000000000000000602082015250565b60006114d8602383610d45565b91506114e38261147c565b604082019050919050565b60006020820190508181036000830152611507816114cb565b9050919050565b7f45524332303a207472616e7366657220616d6f756e742065786365656473206260008201527f616c616e63650000000000000000000000000000000000000000000000000000602082015250565b600061156a602683610d45565b91506115758261150e565b604082019050919050565b600060208201905081810360008301526115998161155d565b9050919050565b7f45524332303a206d696e7420746f20746865207a65726f206164647265737300600082015250565b60006115d6601f83610d45565b91506115e1826115a0565b602082019050919050565b60006020820190508181036000830152611605816115c9565b905091905056fea26469706673582212205926a9fcf6a3e6e002d916a10e51557c0c6fb95ee8ddf37bba1f08688ce615bc64736f6c63430008130033",
  "immutableReferences": {},
  "source": "// SPDX-License-Identifier: MIT\npragma solidity ^0.8.0;\n\n// Import:\nimport \"@openzeppelin/contracts/token/ERC20/ERC20.sol\";\n\n// Custom ERC20 token contract\ncontract MyERC20Token is ERC20 {\n    address public owner;\n\n    constructor(uint256 initialSupply) ERC20(\"MyToken\", \"MTK\") {\n        // Mint initial supply of tokens\n        _mint(msg.sender, initialSupply * (10 ** uint256(decimals())));\n        owner = msg.sender;\n    }\n\n    function mint(uint256 amount) public {\n        _mint(msg.sender, amount);\n    }\n\n    \n    function mintFor(address recipient, uint256 amount) public {\n        require(msg.sender == owner, \"Only owner can mint tokens for others\");\n        _mint(recipient, amount);\n    }\n}\n\ncontract SupplyChain{\n\n    MyERC20Token public token;\n\n    // state variables\n    uint public registrationFee= 10;\n    address public owner;\n    uint256 public productIndex;\n    uint256 public orderIndex;\n \n    // mapping \n    mapping(address => bool) public admins;\n    mapping(address => bool) public retailers;\n    mapping(address => bool) registeredRetailers;\n    mapping(address => bool) public customers;\n    mapping(uint256 => Product) public products;\n    mapping(uint256 => Order) public orders;\n    \n   // modifiers\n    modifier onlyOwner() {\n        require(msg.sender == owner, \"Only owner can call this function\");\n        _;\n    }\n\n    modifier onlyAdmin() {\n        require(admins[msg.sender] == true, \"Only admin can call this function\");\n        _;\n    }\n\n    modifier onlyRetailer() {\n        require(registeredRetailers[msg.sender] == true, \"Only retailer can call this function\");\n        _;\n    }\n\n    modifier onlyCustomer() {\n    require(retailers[msg.sender] == false && admins[msg.sender] == false && msg.sender != owner, \"Only customer can call this function\");\n    _;\n    }\n    \n    //enumerator\n    enum OrderStatus { Pending, Fulfilled, Cancelled }\n\n    // structures\n    struct Product {\n        uint256 id;\n        string name;\n        uint256 price;\n        uint256 quantity;\n        address payable retailer;\n    }\n \n    struct Order {\n        uint256 id;\n        uint256 productId;\n        uint256 quantity;\n        address customer;\n        address retailer;\n        bool fulfilled;\n        bool delivered;\n        OrderStatus status;\n    }\n\n    struct Retailer {\n        string name;\n        address addr;\n        \n    }\n\n    // events\n    event ProductAdded(uint256 indexed _productId, string _name, uint256 _price, uint256 _quantity, address _retailer);\n    event OrderPlaced(uint256 indexed _orderId, uint256 _productId, uint256 _quantity, address _customer, address _retailer);\n    event OrderFulfilled(uint256 indexed _orderId, uint256 _quantity, address _customer, address _retailer);\n    event OrderDelivered(uint256 indexed _orderId, uint256 _quantity, address _customer, address _retailer);\n    event RegistrationFeeChanged(uint newRegistrationFee);\n    event RetailerAdded(address indexed retailer);\n    event RetailerRemoved(address indexed retailer);\n    event RetailerRegistered(address indexed retailer);\n\n    // constructor to set token address and contract owner\n    constructor(MyERC20Token tokenAddress) payable{\n        token = tokenAddress;\n        owner = msg.sender;\n    }\n\n    // admin functions\n    function addAdmin(address _admin) public onlyOwner {\n        admins[_admin] = true;\n    }\n\n    function removeAdmin(address _admin) public onlyOwner {\n        admins[_admin] = false;\n    }\n\n    // retailer functions\n\n    function registerRetailer() public payable{\n        require(msg.sender != owner, \"Owner cannot be a retailer\");\n        require(!registeredRetailers[msg.sender], \"Retailer already registered\");\n\n        bool allowanceSuccessful = token.approve(address(this), registrationFee);\n        require(allowanceSuccessful, \"Token allowance failed\");\n\n        bool transferSuccessful = token.transferFrom(msg.sender, owner, registrationFee);\n        require(transferSuccessful, \"Token transfer failed\");\n        registeredRetailers[msg.sender] = true;\n        emit RetailerRegistered(msg.sender);\n    }\n\n    // admin functions\n     function addRetailer(address _retailer) public onlyAdmin {\n        require(registeredRetailers[_retailer], \"Retailer is not registered.\");\n        emit RetailerAdded(_retailer);\n    }\n\n    function removeRetailer(address _retailer) public onlyAdmin {\n    require(registeredRetailers[_retailer], \"Retailer is not registered.\");\n    delete registeredRetailers[_retailer];\n    emit RetailerRemoved(_retailer);\n    }\n\n    // customer functions\n    function addCustomer(address _customer) public onlyAdmin {\n        customers[_customer] = true;\n    }\n\n    function removeCustomer(address _customer) public onlyAdmin {\n        customers[_customer] = false;\n    }\n    \n    // owner function\n    function changeRegistrationFee(uint newRegistrationFee) public onlyOwner {\n        registrationFee = newRegistrationFee;\n        emit RegistrationFeeChanged(newRegistrationFee);\n    }  \n\n    // retailer function\n\n    function addProduct(string memory _name, uint256 _price, uint256 _quantity) public onlyRetailer returns (uint256) {\n        productIndex++;\n        products[productIndex] = Product(productIndex, _name, _price, _quantity, payable(msg.sender));\n        emit ProductAdded(productIndex, _name, _price, _quantity, msg.sender);\n        return productIndex;\n    }\n\n    function placeOrder(uint256 _productId, uint256 _quantity) public payable onlyCustomer {\n        require(products[_productId].quantity >= _quantity, \"Insufficient quantity\");\n        require(products[_productId].price > 0, \"Product does not exist\");\n        require(msg.sender != products[_productId].retailer, \"Retailer cannot place order\");\n\n        // Ensure that only the customer can place the order\n        require(msg.sender == tx.origin, \"Only the customer can place an order\");\n\n        require(token.transferFrom(msg.sender, products[_productId].retailer, products[_productId].price), \"Transfer failed\");\n        orderIndex++;\n        products[_productId].quantity -= _quantity;\n        orders[orderIndex] = Order(orderIndex, _productId, _quantity, msg.sender, products[_productId].retailer, false, false, OrderStatus.Pending);\n        emit OrderPlaced(orderIndex, _productId, _quantity, msg.sender, products[_productId].retailer);\n    }\n\n    function fulfillOrder(uint256 _orderId) public onlyRetailer {\n        Order storage order = orders[_orderId];\n        require(order.fulfilled == false, \"Order already fulfilled\");\n        require(order.status == OrderStatus.Pending, \"Order is not pending\");\n    \n        // Check product quantity\n        require(products[order.productId].quantity >= order.quantity, \"Insufficient product quantity\");\n    \n        order.fulfilled = true;\n        products[order.productId].quantity -= order.quantity;\n        emit OrderFulfilled(_orderId, order.quantity, order.customer, order.retailer);\n    }\n\n\n    function deliverOrder(uint256 _orderId) public onlyRetailer {\n        Order storage order = orders[_orderId];\n        require(order.delivered == false, \"Order already delivered\");\n        require(order.fulfilled == true, \"Order not fulfilled yet\");\n        order.delivered = true;\n        order.status = OrderStatus.Fulfilled; // Update the status to fulfilled after the order is delivered\n        emit OrderDelivered(_orderId, order.quantity, order.customer, order.retailer);\n    }\n\n}",
  "sourcePath": "/Users/yashvantt19/Desktop/Blockchain/cw2/scms/contracts/SupplyChain.sol",
  "compiler": {
    "name": "solc",
    "version": "0.8.19+commit.7dd6d404.Emscripten.clang"
  },
  "schemaVersion": "3.4.13",
  "updatedAt": "2023-04-02T23:15:00.451Z",
  "networkType": "ethereum",
  "devdoc": {
    "events": {
      "Approval(address,address,uint256)": {
        "details": "Emitted when the allowance of a `spender` for an `owner` is set by a call to {approve}. `value` is the new allowance."
      },
      "Transfer(address,address,uint256)": {
        "details": "Emitted when `value` tokens are moved from one account (`from`) to another (`to`). Note that `value` may be zero."
      }
    },
    "kind": "dev",
    "methods": {
      "allowance(address,address)": {
        "details": "See {IERC20-allowance}."
      },
      "approve(address,uint256)": {
        "details": "See {IERC20-approve}. NOTE: If `amount` is the maximum `uint256`, the allowance is not updated on `transferFrom`. This is semantically equivalent to an infinite approval. Requirements: - `spender` cannot be the zero address."
      },
      "balanceOf(address)": {
        "details": "See {IERC20-balanceOf}."
      },
      "decimals()": {
        "details": "Returns the number of decimals used to get its user representation. For example, if `decimals` equals `2`, a balance of `505` tokens should be displayed to a user as `5.05` (`505 / 10 ** 2`). Tokens usually opt for a value of 18, imitating the relationship between Ether and Wei. This is the value {ERC20} uses, unless this function is overridden; NOTE: This information is only used for _display_ purposes: it in no way affects any of the arithmetic of the contract, including {IERC20-balanceOf} and {IERC20-transfer}."
      },
      "decreaseAllowance(address,uint256)": {
        "details": "Atomically decreases the allowance granted to `spender` by the caller. This is an alternative to {approve} that can be used as a mitigation for problems described in {IERC20-approve}. Emits an {Approval} event indicating the updated allowance. Requirements: - `spender` cannot be the zero address. - `spender` must have allowance for the caller of at least `subtractedValue`."
      },
      "increaseAllowance(address,uint256)": {
        "details": "Atomically increases the allowance granted to `spender` by the caller. This is an alternative to {approve} that can be used as a mitigation for problems described in {IERC20-approve}. Emits an {Approval} event indicating the updated allowance. Requirements: - `spender` cannot be the zero address."
      },
      "name()": {
        "details": "Returns the name of the token."
      },
      "symbol()": {
        "details": "Returns the symbol of the token, usually a shorter version of the name."
      },
      "totalSupply()": {
        "details": "See {IERC20-totalSupply}."
      },
      "transfer(address,uint256)": {
        "details": "See {IERC20-transfer}. Requirements: - `to` cannot be the zero address. - the caller must have a balance of at least `amount`."
      },
      "transferFrom(address,address,uint256)": {
        "details": "See {IERC20-transferFrom}. Emits an {Approval} event indicating the updated allowance. This is not required by the EIP. See the note at the beginning of {ERC20}. NOTE: Does not update the allowance if the current allowance is the maximum `uint256`. Requirements: - `from` and `to` cannot be the zero address. - `from` must have a balance of at least `amount`. - the caller must have allowance for ``from``'s tokens of at least `amount`."
      }
    },
    "version": 1
  },
  "userdoc": {
    "kind": "user",
    "methods": {},
    "version": 1
  }
}