{
  "contractName": "SupplyChain",
  "abi": [
    {
      "inputs": [
        {
          "internalType": "contract MyERC20Token",
          "name": "tokenAddress",
          "type": "address"
        }
      ],
      "stateMutability": "payable",
      "type": "constructor",
      "payable": true
    },
    {
      "anonymous": false,
      "inputs": [
        {
          "indexed": true,
          "internalType": "uint256",
          "name": "_orderId",
          "type": "uint256"
        },
        {
          "indexed": false,
          "internalType": "uint256",
          "name": "_quantity",
          "type": "uint256"
        },
        {
          "indexed": false,
          "internalType": "address",
          "name": "_customer",
          "type": "address"
        },
        {
          "indexed": false,
          "internalType": "address",
          "name": "_retailer",
          "type": "address"
        }
      ],
      "name": "OrderDelivered",
      "type": "event"
    },
    {
      "anonymous": false,
      "inputs": [
        {
          "indexed": true,
          "internalType": "uint256",
          "name": "_orderId",
          "type": "uint256"
        },
        {
          "indexed": false,
          "internalType": "uint256",
          "name": "_quantity",
          "type": "uint256"
        },
        {
          "indexed": false,
          "internalType": "address",
          "name": "_customer",
          "type": "address"
        },
        {
          "indexed": false,
          "internalType": "address",
          "name": "_retailer",
          "type": "address"
        }
      ],
      "name": "OrderFulfilled",
      "type": "event"
    },
    {
      "anonymous": false,
      "inputs": [
        {
          "indexed": true,
          "internalType": "uint256",
          "name": "_orderId",
          "type": "uint256"
        },
        {
          "indexed": false,
          "internalType": "uint256",
          "name": "_productId",
          "type": "uint256"
        },
        {
          "indexed": false,
          "internalType": "uint256",
          "name": "_quantity",
          "type": "uint256"
        },
        {
          "indexed": false,
          "internalType": "address",
          "name": "_customer",
          "type": "address"
        },
        {
          "indexed": false,
          "internalType": "address",
          "name": "_retailer",
          "type": "address"
        }
      ],
      "name": "OrderPlaced",
      "type": "event"
    },
    {
      "anonymous": false,
      "inputs": [
        {
          "indexed": true,
          "internalType": "uint256",
          "name": "_productId",
          "type": "uint256"
        },
        {
          "indexed": false,
          "internalType": "string",
          "name": "_name",
          "type": "string"
        },
        {
          "indexed": false,
          "internalType": "uint256",
          "name": "_price",
          "type": "uint256"
        },
        {
          "indexed": false,
          "internalType": "uint256",
          "name": "_quantity",
          "type": "uint256"
        },
        {
          "indexed": false,
          "internalType": "address",
          "name": "_retailer",
          "type": "address"
        }
      ],
      "name": "ProductAdded",
      "type": "event"
    },
    {
      "anonymous": false,
      "inputs": [
        {
          "indexed": false,
          "internalType": "uint256",
          "name": "newRegistrationFee",
          "type": "uint256"
        }
      ],
      "name": "RegistrationFeeChanged",
      "type": "event"
    },
    {
      "anonymous": false,
      "inputs": [
        {
          "indexed": true,
          "internalType": "address",
          "name": "retailer",
          "type": "address"
        }
      ],
      "name": "RetailerAdded",
      "type": "event"
    },
    {
      "anonymous": false,
      "inputs": [
        {
          "indexed": true,
          "internalType": "address",
          "name": "retailer",
          "type": "address"
        }
      ],
      "name": "RetailerRegistered",
      "type": "event"
    },
    {
      "anonymous": false,
      "inputs": [
        {
          "indexed": true,
          "internalType": "address",
          "name": "retailer",
          "type": "address"
        }
      ],
      "name": "RetailerRemoved",
      "type": "event"
    },
    {
      "inputs": [
        {
          "internalType": "address",
          "name": "",
          "type": "address"
        }
      ],
      "name": "admins",
      "outputs": [
        {
          "internalType": "bool",
          "name": "",
          "type": "bool"
        }
      ],
      "stateMutability": "view",
      "type": "function",
      "constant": true
    },
    {
      "inputs": [
        {
          "internalType": "address",
          "name": "",
          "type": "address"
        }
      ],
      "name": "customers",
      "outputs": [
        {
          "internalType": "bool",
          "name": "",
          "type": "bool"
        }
      ],
      "stateMutability": "view",
      "type": "function",
      "constant": true
    },
    {
      "inputs": [],
      "name": "orderIndex",
      "outputs": [
        {
          "internalType": "uint256",
          "name": "",
          "type": "uint256"
        }
      ],
      "stateMutability": "view",
      "type": "function",
      "constant": true
    },
    {
      "inputs": [
        {
          "internalType": "uint256",
          "name": "",
          "type": "uint256"
        }
      ],
      "name": "orders",
      "outputs": [
        {
          "internalType": "uint256",
          "name": "id",
          "type": "uint256"
        },
        {
          "internalType": "uint256",
          "name": "productId",
          "type": "uint256"
        },
        {
          "internalType": "uint256",
          "name": "quantity",
          "type": "uint256"
        },
        {
          "internalType": "address",
          "name": "customer",
          "type": "address"
        },
        {
          "internalType": "address",
          "name": "retailer",
          "type": "address"
        },
        {
          "internalType": "bool",
          "name": "fulfilled",
          "type": "bool"
        },
        {
          "internalType": "bool",
          "name": "delivered",
          "type": "bool"
        },
        {
          "internalType": "enum SupplyChain.OrderStatus",
          "name": "status",
          "type": "uint8"
        }
      ],
      "stateMutability": "view",
      "type": "function",
      "constant": true
    },
    {
      "inputs": [],
      "name": "owner",
      "outputs": [
        {
          "internalType": "address",
          "name": "",
          "type": "address"
        }
      ],
      "stateMutability": "view",
      "type": "function",
      "constant": true
    },
    {
      "inputs": [],
      "name": "productIndex",
      "outputs": [
        {
          "internalType": "uint256",
          "name": "",
          "type": "uint256"
        }
      ],
      "stateMutability": "view",
      "type": "function",
      "constant": true
    },
    {
      "inputs": [
        {
          "internalType": "uint256",
          "name": "",
          "type": "uint256"
        }
      ],
      "name": "products",
      "outputs": [
        {
          "internalType": "uint256",
          "name": "id",
          "type": "uint256"
        },
        {
          "internalType": "string",
          "name": "name",
          "type": "string"
        },
        {
          "internalType": "uint256",
          "name": "price",
          "type": "uint256"
        },
        {
          "internalType": "uint256",
          "name": "quantity",
          "type": "uint256"
        },
        {
          "internalType": "address payable",
          "name": "retailer",
          "type": "address"
        }
      ],
      "stateMutability": "view",
      "type": "function",
      "constant": true
    },
    {
      "inputs": [],
      "name": "registrationFee",
      "outputs": [
        {
          "internalType": "uint256",
          "name": "",
          "type": "uint256"
        }
      ],
      "stateMutability": "view",
      "type": "function",
      "constant": true
    },
    {
      "inputs": [
        {
          "internalType": "address",
          "name": "",
          "type": "address"
        }
      ],
      "name": "retailers",
      "outputs": [
        {
          "internalType": "bool",
          "name": "",
          "type": "bool"
        }
      ],
      "stateMutability": "view",
      "type": "function",
      "constant": true
    },
    {
      "inputs": [],
      "name": "token",
      "outputs": [
        {
          "internalType": "contract MyERC20Token",
          "name": "",
          "type": "address"
        }
      ],
      "stateMutability": "view",
      "type": "function",
      "constant": true
    },
    {
      "inputs": [
        {
          "internalType": "address",
          "name": "_admin",
          "type": "address"
        }
      ],
      "name": "addAdmin",
      "outputs": [],
      "stateMutability": "nonpayable",
      "type": "function"
    },
    {
      "inputs": [
        {
          "internalType": "address",
          "name": "_admin",
          "type": "address"
        }
      ],
      "name": "removeAdmin",
      "outputs": [],
      "stateMutability": "nonpayable",
      "type": "function"
    },
    {
      "inputs": [],
      "name": "registerRetailer",
      "outputs": [],
      "stateMutability": "payable",
      "type": "function",
      "payable": true
    },
    {
      "inputs": [
        {
          "internalType": "address",
          "name": "_retailer",
          "type": "address"
        }
      ],
      "name": "addRetailer",
      "outputs": [],
      "stateMutability": "nonpayable",
      "type": "function"
    },
    {
      "inputs": [
        {
          "internalType": "address",
          "name": "_retailer",
          "type": "address"
        }
      ],
      "name": "removeRetailer",
      "outputs": [],
      "stateMutability": "nonpayable",
      "type": "function"
    },
    {
      "inputs": [
        {
          "internalType": "address",
          "name": "_customer",
          "type": "address"
        }
      ],
      "name": "addCustomer",
      "outputs": [],
      "stateMutability": "nonpayable",
      "type": "function"
    },
    {
      "inputs": [
        {
          "internalType": "address",
          "name": "_customer",
          "type": "address"
        }
      ],
      "name": "removeCustomer",
      "outputs": [],
      "stateMutability": "nonpayable",
      "type": "function"
    },
    {
      "inputs": [
        {
          "internalType": "uint256",
          "name": "newRegistrationFee",
          "type": "uint256"
        }
      ],
      "name": "changeRegistrationFee",
      "outputs": [],
      "stateMutability": "nonpayable",
      "type": "function"
    },
    {
      "inputs": [
        {
          "internalType": "string",
          "name": "_name",
          "type": "string"
        },
        {
          "internalType": "uint256",
          "name": "_price",
          "type": "uint256"
        },
        {
          "internalType": "uint256",
          "name": "_quantity",
          "type": "uint256"
        }
      ],
      "name": "addProduct",
      "outputs": [
        {
          "internalType": "uint256",
          "name": "",
          "type": "uint256"
        }
      ],
      "stateMutability": "nonpayable",
      "type": "function"
    },
    {
      "inputs": [
        {
          "internalType": "uint256",
          "name": "_productId",
          "type": "uint256"
        },
        {
          "internalType": "uint256",
          "name": "_quantity",
          "type": "uint256"
        }
      ],
      "name": "placeOrder",
      "outputs": [],
      "stateMutability": "payable",
      "type": "function",
      "payable": true
    },
    {
      "inputs": [
        {
          "internalType": "uint256",
          "name": "_orderId",
          "type": "uint256"
        }
      ],
      "name": "fulfillOrder",
      "outputs": [],
      "stateMutability": "nonpayable",
      "type": "function"
    },
    {
      "inputs": [
        {
          "internalType": "uint256",
          "name": "_orderId",
          "type": "uint256"
        }
      ],
      "name": "deliverOrder",
      "outputs": [],
      "stateMutability": "nonpayable",
      "type": "function"
    }
  ],
  "bytecode": "0x6080604052600a600155604051620035f6380380620035f683398181016040528101906200002e919062000134565b806000806101000a81548173ffffffffffffffffffffffffffffffffffffffff021916908373ffffffffffffffffffffffffffffffffffffffff16021790555033600260006101000a81548173ffffffffffffffffffffffffffffffffffffffff021916908373ffffffffffffffffffffffffffffffffffffffff1602179055505062000166565b600080fd5b600073ffffffffffffffffffffffffffffffffffffffff82169050919050565b6000620000e882620000bb565b9050919050565b6000620000fc82620000db565b9050919050565b6200010e81620000ef565b81146200011a57600080fd5b50565b6000815190506200012e8162000103565b92915050565b6000602082840312156200014d576200014c620000b6565b5b60006200015d848285016200011d565b91505092915050565b61348080620001766000396000f3fe6080604052600436106101355760003560e01c80637acc0b20116100ab5780639a268f351161006f5780639a268f35146103f8578063a85c38ef14610435578063ad973d7414610479578063c897d5a6146104a2578063ddff5e7d146104cd578063fc0c546a146104f657610135565b80637acc0b201461031e578063843f61e21461035f5780638da5cb5b1461037b5780638eb06ccf146103a65780638ec4f505146103cf57610135565b8063429b62e5116100fd578063429b62e51461023357806346b6fd5f14610270578063500507691461027a5780636311e830146102a357806370099ec8146102cc57806370480275146102f557610135565b8063125b0b341461013a57806314c44e09146101775780631785f53c146101a257806330471fee146101cb578063336989ae146101f6575b600080fd5b34801561014657600080fd5b50610161600480360381019061015c91906121d6565b610521565b60405161016e9190612254565b60405180910390f35b34801561018357600080fd5b5061018c6106ec565b6040516101999190612254565b60405180910390f35b3480156101ae57600080fd5b506101c960048036038101906101c491906122cd565b6106f2565b005b3480156101d757600080fd5b506101e06107dd565b6040516101ed9190612254565b60405180910390f35b34801561020257600080fd5b5061021d600480360381019061021891906122cd565b6107e3565b60405161022a9190612315565b60405180910390f35b34801561023f57600080fd5b5061025a600480360381019061025591906122cd565b610803565b6040516102679190612315565b60405180910390f35b610278610823565b005b34801561028657600080fd5b506102a1600480360381019061029c9190612330565b610bcd565b005b3480156102af57600080fd5b506102ca60048036038101906102c59190612330565b610c9e565b005b3480156102d857600080fd5b506102f360048036038101906102ee91906122cd565b610f57565b005b34801561030157600080fd5b5061031c600480360381019061031791906122cd565b61110b565b005b34801561032a57600080fd5b5061034560048036038101906103409190612330565b6111f6565b6040516103569594939291906123fd565b60405180910390f35b61037960048036038101906103749190612457565b6112d4565b005b34801561038757600080fd5b506103906119b6565b60405161039d91906124a6565b60405180910390f35b3480156103b257600080fd5b506103cd60048036038101906103c891906122cd565b6119dc565b005b3480156103db57600080fd5b506103f660048036038101906103f191906122cd565b611aca565b005b34801561040457600080fd5b5061041f600480360381019061041a91906122cd565b611c2f565b60405161042c9190612315565b60405180910390f35b34801561044157600080fd5b5061045c60048036038101906104579190612330565b611c4f565b604051610470989796959493929190612538565b60405180910390f35b34801561048557600080fd5b506104a0600480360381019061049b91906122cd565b611cfe565b005b3480156104ae57600080fd5b506104b7611dec565b6040516104c49190612254565b60405180910390f35b3480156104d957600080fd5b506104f460048036038101906104ef9190612330565b611df2565b005b34801561050257600080fd5b5061050b612022565b6040516105189190612615565b60405180910390f35b600060011515600760003373ffffffffffffffffffffffffffffffffffffffff1673ffffffffffffffffffffffffffffffffffffffff16815260200190815260200160002060009054906101000a900460ff161515146105b6576040517f08c379a00000000000000000000000000000000000000000000000000000000081526004016105ad906126a2565b60405180910390fd5b600360008154809291906105c9906126f1565b91905055506040518060a0016040528060035481526020018581526020018481526020018381526020013373ffffffffffffffffffffffffffffffffffffffff16815250600960006003548152602001908152602001600020600082015181600001556020820151816001019081610641919061293b565b50604082015181600201556060820151816003015560808201518160040160006101000a81548173ffffffffffffffffffffffffffffffffffffffff021916908373ffffffffffffffffffffffffffffffffffffffff1602179055509050506003547f3d62634187d659619c5db5d026cc9a7da427c566510a5b8cb210293bf9fd530e858585336040516106d89493929190612a0d565b60405180910390a260035490509392505050565b60015481565b600260009054906101000a900473ffffffffffffffffffffffffffffffffffffffff1673ffffffffffffffffffffffffffffffffffffffff163373ffffffffffffffffffffffffffffffffffffffff1614610782576040517f08c379a000000000000000000000000000000000000000000000000000000000815260040161077990612acb565b60405180910390fd5b6000600560008373ffffffffffffffffffffffffffffffffffffffff1673ffffffffffffffffffffffffffffffffffffffff16815260200190815260200160002060006101000a81548160ff02191690831515021790555050565b60045481565b60086020528060005260406000206000915054906101000a900460ff1681565b60056020528060005260406000206000915054906101000a900460ff1681565b600260009054906101000a900473ffffffffffffffffffffffffffffffffffffffff1673ffffffffffffffffffffffffffffffffffffffff163373ffffffffffffffffffffffffffffffffffffffff16036108b3576040517f08c379a00000000000000000000000000000000000000000000000000000000081526004016108aa90612b37565b60405180910390fd5b600760003373ffffffffffffffffffffffffffffffffffffffff1673ffffffffffffffffffffffffffffffffffffffff16815260200190815260200160002060009054906101000a900460ff1615610940576040517f08c379a000000000000000000000000000000000000000000000000000000000815260040161093790612ba3565b60405180910390fd5b60008060009054906101000a900473ffffffffffffffffffffffffffffffffffffffff1673ffffffffffffffffffffffffffffffffffffffff1663095ea7b3306001546040518363ffffffff1660e01b81526004016109a0929190612bc3565b6020604051808303816000875af11580156109bf573d6000803e3d6000fd5b505050506040513d601f19601f820116820180604052508101906109e39190612c18565b905080610a25576040517f08c379a0000000000000000000000000000000000000000000000000000000008152600401610a1c90612c91565b60405180910390fd5b60008060009054906101000a900473ffffffffffffffffffffffffffffffffffffffff1673ffffffffffffffffffffffffffffffffffffffff166323b872dd33600260009054906101000a900473ffffffffffffffffffffffffffffffffffffffff166001546040518463ffffffff1660e01b8152600401610aa993929190612cb1565b6020604051808303816000875af1158015610ac8573d6000803e3d6000fd5b505050506040513d601f19601f82011682018060405250810190610aec9190612c18565b905080610b2e576040517f08c379a0000000000000000000000000000000000000000000000000000000008152600401610b2590612d34565b60405180910390fd5b6001600760003373ffffffffffffffffffffffffffffffffffffffff1673ffffffffffffffffffffffffffffffffffffffff16815260200190815260200160002060006101000a81548160ff0219169083151502179055503373ffffffffffffffffffffffffffffffffffffffff167f38fdd8eb5b0a95606a3c195a848b5d3fb08512d7b4160f0abfb19aa832bbed5f60405160405180910390a25050565b600260009054906101000a900473ffffffffffffffffffffffffffffffffffffffff1673ffffffffffffffffffffffffffffffffffffffff163373ffffffffffffffffffffffffffffffffffffffff1614610c5d576040517f08c379a0000000000000000000000000000000000000000000000000000000008152600401610c5490612acb565b60405180910390fd5b806001819055507ffd29c2cd5dc77cf2bad34e3b80ec2592a7c16d32869ccaee99f95af250db954a81604051610c939190612254565b60405180910390a150565b60011515600760003373ffffffffffffffffffffffffffffffffffffffff1673ffffffffffffffffffffffffffffffffffffffff16815260200190815260200160002060009054906101000a900460ff16151514610d31576040517f08c379a0000000000000000000000000000000000000000000000000000000008152600401610d28906126a2565b60405180910390fd5b6000600a60008381526020019081526020016000209050600015158160040160149054906101000a900460ff16151514610da0576040517f08c379a0000000000000000000000000000000000000000000000000000000008152600401610d9790612da0565b60405180910390fd5b60006002811115610db457610db36124c1565b5b8160040160169054906101000a900460ff166002811115610dd857610dd76124c1565b5b14610e18576040517f08c379a0000000000000000000000000000000000000000000000000000000008152600401610e0f90612e0c565b60405180910390fd5b80600201546009600083600101548152602001908152602001600020600301541015610e79576040517f08c379a0000000000000000000000000000000000000000000000000000000008152600401610e7090612e78565b60405180910390fd5b60018160040160146101000a81548160ff021916908315150217905550806002015460096000836001015481526020019081526020016000206003016000828254610ec49190612e98565b92505081905550817f8bbe833b14dbbefade64c9341ca91811065e709781e243183509baf8d58f29d082600201548360030160009054906101000a900473ffffffffffffffffffffffffffffffffffffffff168460040160009054906101000a900473ffffffffffffffffffffffffffffffffffffffff16604051610f4b93929190612ecc565b60405180910390a25050565b60011515600560003373ffffffffffffffffffffffffffffffffffffffff1673ffffffffffffffffffffffffffffffffffffffff16815260200190815260200160002060009054906101000a900460ff16151514610fea576040517f08c379a0000000000000000000000000000000000000000000000000000000008152600401610fe190612f75565b60405180910390fd5b600760008273ffffffffffffffffffffffffffffffffffffffff1673ffffffffffffffffffffffffffffffffffffffff16815260200190815260200160002060009054906101000a900460ff16611076576040517f08c379a000000000000000000000000000000000000000000000000000000000815260040161106d90612fe1565b60405180910390fd5b600760008273ffffffffffffffffffffffffffffffffffffffff1673ffffffffffffffffffffffffffffffffffffffff16815260200190815260200160002060006101000a81549060ff02191690558073ffffffffffffffffffffffffffffffffffffffff167fdb7176e79cffef81cb01767dd0447a0b24bb72ca9778d4b245581086b2a7e6db60405160405180910390a250565b600260009054906101000a900473ffffffffffffffffffffffffffffffffffffffff1673ffffffffffffffffffffffffffffffffffffffff163373ffffffffffffffffffffffffffffffffffffffff161461119b576040517f08c379a000000000000000000000000000000000000000000000000000000000815260040161119290612acb565b60405180910390fd5b6001600560008373ffffffffffffffffffffffffffffffffffffffff1673ffffffffffffffffffffffffffffffffffffffff16815260200190815260200160002060006101000a81548160ff02191690831515021790555050565b600960205280600052604060002060009150905080600001549080600101805461121f90612768565b80601f016020809104026020016040519081016040528092919081815260200182805461124b90612768565b80156112985780601f1061126d57610100808354040283529160200191611298565b820191906000526020600020905b81548152906001019060200180831161127b57829003601f168201915b5050505050908060020154908060030154908060040160009054906101000a900473ffffffffffffffffffffffffffffffffffffffff16905085565b60001515600660003373ffffffffffffffffffffffffffffffffffffffff1673ffffffffffffffffffffffffffffffffffffffff16815260200190815260200160002060009054906101000a900460ff161515148015611384575060001515600560003373ffffffffffffffffffffffffffffffffffffffff1673ffffffffffffffffffffffffffffffffffffffff16815260200190815260200160002060009054906101000a900460ff161515145b80156113de5750600260009054906101000a900473ffffffffffffffffffffffffffffffffffffffff1673ffffffffffffffffffffffffffffffffffffffff163373ffffffffffffffffffffffffffffffffffffffff1614155b61141d576040517f08c379a000000000000000000000000000000000000000000000000000000000815260040161141490613073565b60405180910390fd5b8060096000848152602001908152602001600020600301541015611476576040517f08c379a000000000000000000000000000000000000000000000000000000000815260040161146d906130df565b60405180910390fd5b60006009600084815260200190815260200160002060020154116114cf576040517f08c379a00000000000000000000000000000000000000000000000000000000081526004016114c69061314b565b60405180910390fd5b6009600083815260200190815260200160002060040160009054906101000a900473ffffffffffffffffffffffffffffffffffffffff1673ffffffffffffffffffffffffffffffffffffffff163373ffffffffffffffffffffffffffffffffffffffff1603611573576040517f08c379a000000000000000000000000000000000000000000000000000000000815260040161156a906131b7565b60405180910390fd5b3273ffffffffffffffffffffffffffffffffffffffff163373ffffffffffffffffffffffffffffffffffffffff16146115e1576040517f08c379a00000000000000000000000000000000000000000000000000000000081526004016115d890613249565b60405180910390fd5b60008054906101000a900473ffffffffffffffffffffffffffffffffffffffff1673ffffffffffffffffffffffffffffffffffffffff166323b872dd336009600086815260200190815260200160002060040160009054906101000a900473ffffffffffffffffffffffffffffffffffffffff1660096000878152602001908152602001600020600201546040518463ffffffff1660e01b815260040161168a9392919061328a565b6020604051808303816000875af11580156116a9573d6000803e3d6000fd5b505050506040513d601f19601f820116820180604052508101906116cd9190612c18565b61170c576040517f08c379a00000000000000000000000000000000000000000000000000000000081526004016117039061330d565b60405180910390fd5b6004600081548092919061171f906126f1565b91905055508060096000848152602001908152602001600020600301600082825461174a9190612e98565b9250508190555060405180610100016040528060045481526020018381526020018281526020013373ffffffffffffffffffffffffffffffffffffffff1681526020016009600085815260200190815260200160002060040160009054906101000a900473ffffffffffffffffffffffffffffffffffffffff1673ffffffffffffffffffffffffffffffffffffffff16815260200160001515815260200160001515815260200160006002811115611805576118046124c1565b5b815250600a6000600454815260200190815260200160002060008201518160000155602082015181600101556040820151816002015560608201518160030160006101000a81548173ffffffffffffffffffffffffffffffffffffffff021916908373ffffffffffffffffffffffffffffffffffffffff16021790555060808201518160040160006101000a81548173ffffffffffffffffffffffffffffffffffffffff021916908373ffffffffffffffffffffffffffffffffffffffff16021790555060a08201518160040160146101000a81548160ff02191690831515021790555060c08201518160040160156101000a81548160ff02191690831515021790555060e08201518160040160166101000a81548160ff02191690836002811115611934576119336124c1565b5b02179055509050506004547fa0b5c911082416eea473eb1b701bfecdcbe67151ccb6a34761d47ef9ae6242128383336009600088815260200190815260200160002060040160009054906101000a900473ffffffffffffffffffffffffffffffffffffffff166040516119aa949392919061332d565b60405180910390a25050565b600260009054906101000a900473ffffffffffffffffffffffffffffffffffffffff1681565b60011515600560003373ffffffffffffffffffffffffffffffffffffffff1673ffffffffffffffffffffffffffffffffffffffff16815260200190815260200160002060009054906101000a900460ff16151514611a6f576040517f08c379a0000000000000000000000000000000000000000000000000000000008152600401611a6690612f75565b60405180910390fd5b6000600860008373ffffffffffffffffffffffffffffffffffffffff1673ffffffffffffffffffffffffffffffffffffffff16815260200190815260200160002060006101000a81548160ff02191690831515021790555050565b60011515600560003373ffffffffffffffffffffffffffffffffffffffff1673ffffffffffffffffffffffffffffffffffffffff16815260200190815260200160002060009054906101000a900460ff16151514611b5d576040517f08c379a0000000000000000000000000000000000000000000000000000000008152600401611b5490612f75565b60405180910390fd5b600760008273ffffffffffffffffffffffffffffffffffffffff1673ffffffffffffffffffffffffffffffffffffffff16815260200190815260200160002060009054906101000a900460ff16611be9576040517f08c379a0000000000000000000000000000000000000000000000000000000008152600401611be090612fe1565b60405180910390fd5b8073ffffffffffffffffffffffffffffffffffffffff167f71ae26cad02663e3d92efd6ec56031a80d74a20c0ab4183faa8bf262261c9baa60405160405180910390a250565b60066020528060005260406000206000915054906101000a900460ff1681565b600a6020528060005260406000206000915090508060000154908060010154908060020154908060030160009054906101000a900473ffffffffffffffffffffffffffffffffffffffff16908060040160009054906101000a900473ffffffffffffffffffffffffffffffffffffffff16908060040160149054906101000a900460ff16908060040160159054906101000a900460ff16908060040160169054906101000a900460ff16905088565b60011515600560003373ffffffffffffffffffffffffffffffffffffffff1673ffffffffffffffffffffffffffffffffffffffff16815260200190815260200160002060009054906101000a900460ff16151514611d91576040517f08c379a0000000000000000000000000000000000000000000000000000000008152600401611d8890612f75565b60405180910390fd5b6001600860008373ffffffffffffffffffffffffffffffffffffffff1673ffffffffffffffffffffffffffffffffffffffff16815260200190815260200160002060006101000a81548160ff02191690831515021790555050565b60035481565b60011515600760003373ffffffffffffffffffffffffffffffffffffffff1673ffffffffffffffffffffffffffffffffffffffff16815260200190815260200160002060009054906101000a900460ff16151514611e85576040517f08c379a0000000000000000000000000000000000000000000000000000000008152600401611e7c906126a2565b60405180910390fd5b6000600a60008381526020019081526020016000209050600015158160040160159054906101000a900460ff16151514611ef4576040517f08c379a0000000000000000000000000000000000000000000000000000000008152600401611eeb906133be565b60405180910390fd5b600115158160040160149054906101000a900460ff16151514611f4c576040517f08c379a0000000000000000000000000000000000000000000000000000000008152600401611f439061342a565b60405180910390fd5b60018160040160156101000a81548160ff02191690831515021790555060018160040160166101000a81548160ff02191690836002811115611f9157611f906124c1565b5b0217905550817fb0581e56436aa11c0a59e4091f30f81384590ad93080cd4fcdea0d7fd336471b82600201548360030160009054906101000a900473ffffffffffffffffffffffffffffffffffffffff168460040160009054906101000a900473ffffffffffffffffffffffffffffffffffffffff1660405161201693929190612ecc565b60405180910390a25050565b60008054906101000a900473ffffffffffffffffffffffffffffffffffffffff1681565b6000604051905090565b600080fd5b600080fd5b600080fd5b600080fd5b6000601f19601f8301169050919050565b7f4e487b7100000000000000000000000000000000000000000000000000000000600052604160045260246000fd5b6120ad82612064565b810181811067ffffffffffffffff821117156120cc576120cb612075565b5b80604052505050565b60006120df612046565b90506120eb82826120a4565b919050565b600067ffffffffffffffff82111561210b5761210a612075565b5b61211482612064565b9050602081019050919050565b82818337600083830152505050565b600061214361213e846120f0565b6120d5565b90508281526020810184848401111561215f5761215e61205f565b5b61216a848285612121565b509392505050565b600082601f8301126121875761218661205a565b5b8135612197848260208601612130565b91505092915050565b6000819050919050565b6121b3816121a0565b81146121be57600080fd5b50565b6000813590506121d0816121aa565b92915050565b6000806000606084860312156121ef576121ee612050565b5b600084013567ffffffffffffffff81111561220d5761220c612055565b5b61221986828701612172565b935050602061222a868287016121c1565b925050604061223b868287016121c1565b9150509250925092565b61224e816121a0565b82525050565b60006020820190506122696000830184612245565b92915050565b600073ffffffffffffffffffffffffffffffffffffffff82169050919050565b600061229a8261226f565b9050919050565b6122aa8161228f565b81146122b557600080fd5b50565b6000813590506122c7816122a1565b92915050565b6000602082840312156122e3576122e2612050565b5b60006122f1848285016122b8565b91505092915050565b60008115159050919050565b61230f816122fa565b82525050565b600060208201905061232a6000830184612306565b92915050565b60006020828403121561234657612345612050565b5b6000612354848285016121c1565b91505092915050565b600081519050919050565b600082825260208201905092915050565b60005b8381101561239757808201518184015260208101905061237c565b60008484015250505050565b60006123ae8261235d565b6123b88185612368565b93506123c8818560208601612379565b6123d181612064565b840191505092915050565b60006123e78261226f565b9050919050565b6123f7816123dc565b82525050565b600060a0820190506124126000830188612245565b818103602083015261242481876123a3565b90506124336040830186612245565b6124406060830185612245565b61244d60808301846123ee565b9695505050505050565b6000806040838503121561246e5761246d612050565b5b600061247c858286016121c1565b925050602061248d858286016121c1565b9150509250929050565b6124a08161228f565b82525050565b60006020820190506124bb6000830184612497565b92915050565b7f4e487b7100000000000000000000000000000000000000000000000000000000600052602160045260246000fd5b60038110612501576125006124c1565b5b50565b6000819050612512826124f0565b919050565b600061252282612504565b9050919050565b61253281612517565b82525050565b60006101008201905061254e600083018b612245565b61255b602083018a612245565b6125686040830189612245565b6125756060830188612497565b6125826080830187612497565b61258f60a0830186612306565b61259c60c0830185612306565b6125a960e0830184612529565b9998505050505050505050565b6000819050919050565b60006125db6125d66125d18461226f565b6125b6565b61226f565b9050919050565b60006125ed826125c0565b9050919050565b60006125ff826125e2565b9050919050565b61260f816125f4565b82525050565b600060208201905061262a6000830184612606565b92915050565b7f4f6e6c792072657461696c65722063616e2063616c6c20746869732066756e6360008201527f74696f6e00000000000000000000000000000000000000000000000000000000602082015250565b600061268c602483612368565b915061269782612630565b604082019050919050565b600060208201905081810360008301526126bb8161267f565b9050919050565b7f4e487b7100000000000000000000000000000000000000000000000000000000600052601160045260246000fd5b60006126fc826121a0565b91507fffffffffffffffffffffffffffffffffffffffffffffffffffffffffffffffff820361272e5761272d6126c2565b5b600182019050919050565b7f4e487b7100000000000000000000000000000000000000000000000000000000600052602260045260246000fd5b6000600282049050600182168061278057607f821691505b60208210810361279357612792612739565b5b50919050565b60008190508160005260206000209050919050565b60006020601f8301049050919050565b600082821b905092915050565b6000600883026127fb7fffffffffffffffffffffffffffffffffffffffffffffffffffffffffffffffff826127be565b61280586836127be565b95508019841693508086168417925050509392505050565b600061283861283361282e846121a0565b6125b6565b6121a0565b9050919050565b6000819050919050565b6128528361281d565b61286661285e8261283f565b8484546127cb565b825550505050565b600090565b61287b61286e565b612886818484612849565b505050565b5b818110156128aa5761289f600082612873565b60018101905061288c565b5050565b601f8211156128ef576128c081612799565b6128c9846127ae565b810160208510156128d8578190505b6128ec6128e4856127ae565b83018261288b565b50505b505050565b600082821c905092915050565b6000612912600019846008026128f4565b1980831691505092915050565b600061292b8383612901565b9150826002028217905092915050565b6129448261235d565b67ffffffffffffffff81111561295d5761295c612075565b5b6129678254612768565b6129728282856128ae565b600060209050601f8311600181146129a55760008415612993578287015190505b61299d858261291f565b865550612a05565b601f1984166129b386612799565b60005b828110156129db578489015182556001820191506020850194506020810190506129b6565b868310156129f857848901516129f4601f891682612901565b8355505b6001600288020188555050505b505050505050565b60006080820190508181036000830152612a2781876123a3565b9050612a366020830186612245565b612a436040830185612245565b612a506060830184612497565b95945050505050565b7f4f6e6c79206f776e65722063616e2063616c6c20746869732066756e6374696f60008201527f6e00000000000000000000000000000000000000000000000000000000000000602082015250565b6000612ab5602183612368565b9150612ac082612a59565b604082019050919050565b60006020820190508181036000830152612ae481612aa8565b9050919050565b7f4f776e65722063616e6e6f7420626520612072657461696c6572000000000000600082015250565b6000612b21601a83612368565b9150612b2c82612aeb565b602082019050919050565b60006020820190508181036000830152612b5081612b14565b9050919050565b7f52657461696c657220616c726561647920726567697374657265640000000000600082015250565b6000612b8d601b83612368565b9150612b9882612b57565b602082019050919050565b60006020820190508181036000830152612bbc81612b80565b9050919050565b6000604082019050612bd86000830185612497565b612be56020830184612245565b9392505050565b612bf5816122fa565b8114612c0057600080fd5b50565b600081519050612c1281612bec565b92915050565b600060208284031215612c2e57612c2d612050565b5b6000612c3c84828501612c03565b91505092915050565b7f546f6b656e20616c6c6f77616e6365206661696c656400000000000000000000600082015250565b6000612c7b601683612368565b9150612c8682612c45565b602082019050919050565b60006020820190508181036000830152612caa81612c6e565b9050919050565b6000606082019050612cc66000830186612497565b612cd36020830185612497565b612ce06040830184612245565b949350505050565b7f546f6b656e207472616e73666572206661696c65640000000000000000000000600082015250565b6000612d1e601583612368565b9150612d2982612ce8565b602082019050919050565b60006020820190508181036000830152612d4d81612d11565b9050919050565b7f4f7264657220616c72656164792066756c66696c6c6564000000000000000000600082015250565b6000612d8a601783612368565b9150612d9582612d54565b602082019050919050565b60006020820190508181036000830152612db981612d7d565b9050919050565b7f4f72646572206973206e6f742070656e64696e67000000000000000000000000600082015250565b6000612df6601483612368565b9150612e0182612dc0565b602082019050919050565b60006020820190508181036000830152612e2581612de9565b9050919050565b7f496e73756666696369656e742070726f64756374207175616e74697479000000600082015250565b6000612e62601d83612368565b9150612e6d82612e2c565b602082019050919050565b60006020820190508181036000830152612e9181612e55565b9050919050565b6000612ea3826121a0565b9150612eae836121a0565b9250828203905081811115612ec657612ec56126c2565b5b92915050565b6000606082019050612ee16000830186612245565b612eee6020830185612497565b612efb6040830184612497565b949350505050565b7f4f6e6c792061646d696e2063616e2063616c6c20746869732066756e6374696f60008201527f6e00000000000000000000000000000000000000000000000000000000000000602082015250565b6000612f5f602183612368565b9150612f6a82612f03565b604082019050919050565b60006020820190508181036000830152612f8e81612f52565b9050919050565b7f52657461696c6572206973206e6f7420726567697374657265642e0000000000600082015250565b6000612fcb601b83612368565b9150612fd682612f95565b602082019050919050565b60006020820190508181036000830152612ffa81612fbe565b9050919050565b7f4f6e6c7920637573746f6d65722063616e2063616c6c20746869732066756e6360008201527f74696f6e00000000000000000000000000000000000000000000000000000000602082015250565b600061305d602483612368565b915061306882613001565b604082019050919050565b6000602082019050818103600083015261308c81613050565b9050919050565b7f496e73756666696369656e74207175616e746974790000000000000000000000600082015250565b60006130c9601583612368565b91506130d482613093565b602082019050919050565b600060208201905081810360008301526130f8816130bc565b9050919050565b7f50726f6475637420646f6573206e6f7420657869737400000000000000000000600082015250565b6000613135601683612368565b9150613140826130ff565b602082019050919050565b6000602082019050818103600083015261316481613128565b9050919050565b7f52657461696c65722063616e6e6f7420706c616365206f726465720000000000600082015250565b60006131a1601b83612368565b91506131ac8261316b565b602082019050919050565b600060208201905081810360008301526131d081613194565b9050919050565b7f4f6e6c792074686520637573746f6d65722063616e20706c61636520616e206f60008201527f7264657200000000000000000000000000000000000000000000000000000000602082015250565b6000613233602483612368565b915061323e826131d7565b604082019050919050565b6000602082019050818103600083015261326281613226565b9050919050565b6000613274826125e2565b9050919050565b61328481613269565b82525050565b600060608201905061329f6000830186612497565b6132ac602083018561327b565b6132b96040830184612245565b949350505050565b7f5472616e73666572206661696c65640000000000000000000000000000000000600082015250565b60006132f7600f83612368565b9150613302826132c1565b602082019050919050565b60006020820190508181036000830152613326816132ea565b9050919050565b60006080820190506133426000830187612245565b61334f6020830186612245565b61335c6040830185612497565b613369606083018461327b565b95945050505050565b7f4f7264657220616c72656164792064656c697665726564000000000000000000600082015250565b60006133a8601783612368565b91506133b382613372565b602082019050919050565b600060208201905081810360008301526133d78161339b565b9050919050565b7f4f72646572206e6f742066756c66696c6c656420796574000000000000000000600082015250565b6000613414601783612368565b915061341f826133de565b602082019050919050565b6000602082019050818103600083015261344381613407565b905091905056fea2646970667358221220d035698f80412f03add8b00f8490a893ce959d40e8d06bea2e0bf2624df4f02064736f6c63430008130033",
  "immutableReferences": {},
  "source": "// SPDX-License-Identifier: MIT\npragma solidity ^0.8.0;\n\n// Import:\nimport \"@openzeppelin/contracts/token/ERC20/ERC20.sol\";\n\n// Custom ERC20 token contract\ncontract MyERC20Token is ERC20 {\n    address public owner;\n\n    constructor(uint256 initialSupply) ERC20(\"MyToken\", \"MTK\") {\n        // Mint initial supply of tokens\n        _mint(msg.sender, initialSupply * (10 ** uint256(decimals())));\n        owner = msg.sender;\n    }\n\n    function mint(uint256 amount) public {\n        _mint(msg.sender, amount);\n    }\n\n    \n    function mintFor(address recipient, uint256 amount) public {\n        require(msg.sender == owner, \"Only owner can mint tokens for others\");\n        _mint(recipient, amount);\n    }\n}\n\ncontract SupplyChain{\n\n    MyERC20Token public token;\n\n    // state variables\n    uint public registrationFee= 10;\n    address public owner;\n    uint256 public productIndex;\n    uint256 public orderIndex;\n \n    // mapping \n    mapping(address => bool) public admins;\n    mapping(address => bool) public retailers;\n    mapping(address => bool) registeredRetailers;\n    mapping(address => bool) public customers;\n    mapping(uint256 => Product) public products;\n    mapping(uint256 => Order) public orders;\n    \n   // modifiers\n    modifier onlyOwner() {\n        require(msg.sender == owner, \"Only owner can call this function\");\n        _;\n    }\n\n    modifier onlyAdmin() {\n        require(admins[msg.sender] == true, \"Only admin can call this function\");\n        _;\n    }\n\n    modifier onlyRetailer() {\n        require(registeredRetailers[msg.sender] == true, \"Only retailer can call this function\");\n        _;\n    }\n\n    modifier onlyCustomer() {\n    require(retailers[msg.sender] == false && admins[msg.sender] == false && msg.sender != owner, \"Only customer can call this function\");\n    _;\n    }\n    \n    //enumerator\n    enum OrderStatus { Pending, Fulfilled, Cancelled }\n\n    // structures\n    struct Product {\n        uint256 id;\n        string name;\n        uint256 price;\n        uint256 quantity;\n        address payable retailer;\n    }\n \n    struct Order {\n        uint256 id;\n        uint256 productId;\n        uint256 quantity;\n        address customer;\n        address retailer;\n        bool fulfilled;\n        bool delivered;\n        OrderStatus status;\n    }\n\n    struct Retailer {\n        string name;\n        address addr;\n        \n    }\n\n    // events\n    event ProductAdded(uint256 indexed _productId, string _name, uint256 _price, uint256 _quantity, address _retailer);\n    event OrderPlaced(uint256 indexed _orderId, uint256 _productId, uint256 _quantity, address _customer, address _retailer);\n    event OrderFulfilled(uint256 indexed _orderId, uint256 _quantity, address _customer, address _retailer);\n    event OrderDelivered(uint256 indexed _orderId, uint256 _quantity, address _customer, address _retailer);\n    event RegistrationFeeChanged(uint newRegistrationFee);\n    event RetailerAdded(address indexed retailer);\n    event RetailerRemoved(address indexed retailer);\n    event RetailerRegistered(address indexed retailer);\n\n    // constructor to set token address and contract owner\n    constructor(MyERC20Token tokenAddress) payable{\n        token = tokenAddress;\n        owner = msg.sender;\n    }\n\n    // admin functions\n    function addAdmin(address _admin) public onlyOwner {\n        admins[_admin] = true;\n    }\n\n    function removeAdmin(address _admin) public onlyOwner {\n        admins[_admin] = false;\n    }\n\n    // retailer functions\n\n    function registerRetailer() public payable{\n        require(msg.sender != owner, \"Owner cannot be a retailer\");\n        require(!registeredRetailers[msg.sender], \"Retailer already registered\");\n\n        bool allowanceSuccessful = token.approve(address(this), registrationFee);\n        require(allowanceSuccessful, \"Token allowance failed\");\n\n        bool transferSuccessful = token.transferFrom(msg.sender, owner, registrationFee);\n        require(transferSuccessful, \"Token transfer failed\");\n        registeredRetailers[msg.sender] = true;\n        emit RetailerRegistered(msg.sender);\n    }\n\n    // admin functions\n     function addRetailer(address _retailer) public onlyAdmin {\n        require(registeredRetailers[_retailer], \"Retailer is not registered.\");\n        emit RetailerAdded(_retailer);\n    }\n\n    function removeRetailer(address _retailer) public onlyAdmin {\n    require(registeredRetailers[_retailer], \"Retailer is not registered.\");\n    delete registeredRetailers[_retailer];\n    emit RetailerRemoved(_retailer);\n    }\n\n    // customer functions\n    function addCustomer(address _customer) public onlyAdmin {\n        customers[_customer] = true;\n    }\n\n    function removeCustomer(address _customer) public onlyAdmin {\n        customers[_customer] = false;\n    }\n    \n    // owner function\n    function changeRegistrationFee(uint newRegistrationFee) public onlyOwner {\n        registrationFee = newRegistrationFee;\n        emit RegistrationFeeChanged(newRegistrationFee);\n    }  \n\n    // retailer function\n\n    function addProduct(string memory _name, uint256 _price, uint256 _quantity) public onlyRetailer returns (uint256) {\n        productIndex++;\n        products[productIndex] = Product(productIndex, _name, _price, _quantity, payable(msg.sender));\n        emit ProductAdded(productIndex, _name, _price, _quantity, msg.sender);\n        return productIndex;\n    }\n\n    function placeOrder(uint256 _productId, uint256 _quantity) public payable onlyCustomer {\n        require(products[_productId].quantity >= _quantity, \"Insufficient quantity\");\n        require(products[_productId].price > 0, \"Product does not exist\");\n        require(msg.sender != products[_productId].retailer, \"Retailer cannot place order\");\n\n        // Ensure that only the customer can place the order\n        require(msg.sender == tx.origin, \"Only the customer can place an order\");\n\n        require(token.transferFrom(msg.sender, products[_productId].retailer, products[_productId].price), \"Transfer failed\");\n        orderIndex++;\n        products[_productId].quantity -= _quantity;\n        orders[orderIndex] = Order(orderIndex, _productId, _quantity, msg.sender, products[_productId].retailer, false, false, OrderStatus.Pending);\n        emit OrderPlaced(orderIndex, _productId, _quantity, msg.sender, products[_productId].retailer);\n    }\n\n    function fulfillOrder(uint256 _orderId) public onlyRetailer {\n        Order storage order = orders[_orderId];\n        require(order.fulfilled == false, \"Order already fulfilled\");\n        require(order.status == OrderStatus.Pending, \"Order is not pending\");\n    \n        // Check product quantity\n        require(products[order.productId].quantity >= order.quantity, \"Insufficient product quantity\");\n    \n        order.fulfilled = true;\n        products[order.productId].quantity -= order.quantity;\n        emit OrderFulfilled(_orderId, order.quantity, order.customer, order.retailer);\n    }\n\n\n    function deliverOrder(uint256 _orderId) public onlyRetailer {\n        Order storage order = orders[_orderId];\n        require(order.delivered == false, \"Order already delivered\");\n        require(order.fulfilled == true, \"Order not fulfilled yet\");\n        order.delivered = true;\n        order.status = OrderStatus.Fulfilled; // Update the status to fulfilled after the order is delivered\n        emit OrderDelivered(_orderId, order.quantity, order.customer, order.retailer);\n    }\n\n}",
  "sourcePath": "/Users/yashvantt19/Desktop/Blockchain/cw2/scms/contracts/SupplyChain.sol",
  "compiler": {
    "name": "solc",
    "version": "0.8.19+commit.7dd6d404.Emscripten.clang"
  },
  "schemaVersion": "3.4.13",
  "updatedAt": "2023-04-02T23:15:00.460Z",
  "networkType": "ethereum",
  "devdoc": {
    "kind": "dev",
    "methods": {},
    "version": 1
  },
  "userdoc": {
    "kind": "user",
    "methods": {},
    "version": 1
  }
}